:100000000C942A000C9447000C9447000C94470071
:100010000C9447000C9447000C9447000C94470044
:100020000C9447000C9447000C9447000C94470034
:100030000C9447000C9447000C9447000C94470024
:100040000C9447000C9447000C9447000C94470014
:100050000C94470011241FBECFE5D8E0DEBFCDBF12
:1000600010E0A0E6B0E0E4E3F9E002C005900D92F4
:10007000AE36B107D9F710E0AEE6B0E001C01D9290
:10008000A037B107E1F70E9449000C9498040C9442
:100090000000CF92DF92EF92FF920F931F93DF93B6
:1000A000CF93CDB7DEB72D970FB6F894DEBF0FBE56
:1000B000CDBF84B38F6084BB81B3806681BB8B98D6
:1000C000A89A939A8EB589608EBD8FB580648FBDD6
:1000D0008FE090E090936F0080936E0080916E00AF
:1000E00090916F009BBD8ABD8CE00E94550180916C
:1000F0006E0090916F0000D000D000D0EDB7FEB739
:1001000031968E010F5F1F4FADB7BEB712961C938D
:100110000E93119720E6E22E20E0F22EF382E28287
:10012000958384830E94CC018DB79EB706960FB647
:10013000F8949EBF0FBE8DBFC8010E94B201C801D6
:10014000102F092F670180E9E82E81E0F82E8399AE
:10015000FECF80916E0090916F000F9690936F008C
:1001600080936E0080916E0090916F009BBD8ABD60
:1001700080916E0090916F0000D000D000D0EDB75C
:10018000FEB73196ADB7BEB711961C931197129674
:100190000C93C282D382958384830E94CC018DB755
:1001A0009EB706960FB6F8949EBF0FBE8DBF0E94F5
:1001B0004D01812F902F0E94B20188EC90E0F70151
:1001C0003197F1F70197D9F7C2CF662311F0C09AA2
:1001D00001C0C098C198BC9ABD9ABE9ABF9AC798F0
:1001E000C698C598C49887FDC79A86FDC69A85FDAE
:1001F000C59A84FDC49AC39A00C0C398C798C6988C
:10020000C598C49883FDC79A82FDC69A81FDC59A98
:1002100080FDC49AC39A00C0C398C49AC59AC69A6E
:10022000C79A0895C098C19ABC98BD98BE98BF98C7
:10023000C39A00C0B49B02C080E101C080E0B599C0
:100240008062B6998064B7998068C39800C0C39AE9
:1002500000C0B4998160B5998260B6998460B799FD
:100260008860C39808950E94120187FDFCCF00C0EA
:100270000E94120108951F93182F0E943301812FAD
:1002800060E00E94E5001F910895662311F48058F4
:1002900001C080540E943B01089581E00E943B010F
:1002A000089582E00E943B0108951F93182FB89A89
:1002B000B99ABB9ABC9ABD9ABE9ABF9A80EA9FE04F
:1002C0000197F1F7C59AC49AC39A00C0C39880EE0B
:1002D00094E00197F1F7C39A00C0C39880E190E0E1
:1002E000FC013197F1F7C39A00C0C398FC01319724
:1002F000F1F7C498C39A00C0C3980197F1F788E258
:100300000E943B0188E00E943B010E944D0186E073
:100310000E943B01812F0E943B011F9108951F9372
:10032000182F0E943301812F61E00E94E5001F9188
:1003300008950E94330190E008951F93182F0E94A2
:1003400033011A3049F4803410F080E001C080E4B9
:1003500080580E943B0104C0812F61E00E94E500AB
:100360001F910895CF93DF93EC0102C00E949D017D
:1003700089918823D9F7DF91CF910895CF93DF93A7
:10038000EC0102C00E949D01FE0121968491882308
:10039000C9F7DF91CF910895AEE0B0E0E2EDF1E072
:1003A0000C946F040D891E8986E08C831A8309835F
:1003B0008FEF9FE79E838D839E01275E3F4FCE0187
:1003C00001966F89788DA9010E94EF01EF81F88570
:1003D000E00FF11F10822E96E4E00C948B04ACE049
:1003E000B0E0E5EFF1E00C9462046C012B018A01AE
:1003F000FC0117821682838181FD03C02FEF3FEF3E
:10040000BBC14E010894811C911C6FE3362EF6018E
:100410009381F20193FD859193FF81912F018823B0
:1004200009F4A7C1853239F493FD859193FF819139
:100430002F01853229F490E0B6010E94D703E7CF5F
:10044000EE24FF2420E0203298F4803259F08332E9
:1004500069F08B3231F08D3239F0803349F421600C
:100460002CC02260246029C0286027C0206125C0DC
:1004700027FD2CC0382F30533A3098F426FF08C09F
:100480008E2D880FE82EEE0CEE0CE80EE30E15C054
:100490008F2D880FF82EFF0CFF0CF80EF30E206244
:1004A0000CC08E3221F426FD64C1206406C08C3657
:1004B00011F4206802C0883649F4F20193FD859159
:1004C00093FF81912F01882309F0BDCF982F955478
:1004D000933018F09052933020F40C5F1F4F398204
:1004E0000DC0833521F1833621F0833709F058C0E0
:1004F0000AC0F801808189830E5F1F4F540151E0CB
:10050000652E712C12C0F801A080B18026FD03C0B9
:100510006FEF7FEF02C06E2D70E00E5F1F4FC501C1
:100520002C870E94CC033C012C852F7713C0F80147
:10053000A080B18026FD03C06FEF7FEF02C06E2D5B
:1005400070E00E5F1F4FC5012C870E94C1033C0164
:100550002C85206823FF09C01FC080E290E0B6010F
:100560002C870E94D703FA942C858F2D90E0681673
:10057000790698F311C0F50127FD859127FF819138
:100580005F0190E0B6012C870E94D7032C85F11003
:10059000FA940894610871086114710461F7E6C067
:1005A000843611F0893651F527FF08C0F8016081C3
:1005B0007181828193810C5F1F4F0AC0F8014081D5
:1005C0005181BA01882777FD8095982F0E5F1F4FC4
:1005D0004FE6B42EB22297FF09C090958095709592
:1005E00061957F4F8F4F9F4FF0E8BF2AA4012AE00B
:1005F00030E00E940304782E78183FC0853731F42C
:100600003FEEB32EB2222AE030E01FC099EFB92EA0
:10061000B2228835A1F08F3631F0803739F0883733
:1006200009F0A7C005C028E030E00FC020E1B22AE1
:10063000B4FE02C084E0B82A20E130E006C0B4FE77
:1006400002C0E6E0BE2A20E132E0B7FE08C0F801B1
:1006500060817181828193810C5F1F4F07C0F80117
:100660006081718180E090E00E5F1F4FA4010E94C5
:100670000304782E7818FFE7BF22B6FE0BC02EEFDA
:10068000B2227E1438F4B4FE07C0B2FC05C08FEE6F
:10069000B82202C0A72C01C0AE2C8B2DB4FE0DC019
:1006A000FE01E70DF11D9081903319F4E9EEBE22B1
:1006B00007C0A394B2FE04C002C0867809F0A394D8
:1006C0006B2CB3FC14C0B0FE0FC0AF1410F0E72CBD
:1006D0000BC0E72CEF0CEA18AF2C06C080E290E0CC
:1006E000B6010E94D703A394AF14C0F304C0AF14A3
:1006F00010F4FA1801C0FF2464FE0FC080E390E0FC
:10070000B6010E94D70362FE1DC061FC03C088E7EA
:1007100090E00EC088E590E00BC0862D867891F0C1
:1007200061FE02C08BE201C080E2B7FC8DE290E086
:10073000B6010E94D70306C080E390E0B6010E9494
:10074000D703EA947E14C0F37A94F401E70DF11D07
:10075000808190E0B6010E94D7037720A9F706C0F8
:1007600080E290E0B6010E94D703FA94FF20C1F71F
:100770004ECEF60126813781C9012C96E1E10C9419
:100780007E04FC010590615070400110D8F78095FF
:1007900090958E0F9F1F0895FC016150704001904D
:1007A0000110D8F7809590958E0F9F1F08950F9395
:1007B0001F93CF93DF938C01EB018B8181FF1BC0D3
:1007C00082FF0DC02E813F818C819D8128173907C2
:1007D00064F4E881F9810193F983E88306C0E88530
:1007E000F985802F0995009731F48E819F810196BC
:1007F0009F838E8302C00FEF1FEFC801DF91CF915F
:100800001F910F910895FA01AA27283051F1203144
:1008100081F1E8946F936E7F6E5F7F4F8F4F9F4F94
:10082000AF4FB1E03ED0B4E03CD0670F781F891FD6
:100830009A1FA11D680F791F8A1F911DA11D6A0FA4
:10084000711D811D911DA11D20D009F468943F9157
:100850002AE0269F11243019305D3193DEF6CF0156
:100860000895462F4770405D4193B3E00FD0C9F71C
:10087000F6CF462F4F70405D4A3318F0495D31FD89
:100880004052419302D0A9F7EACFB4E0A6959795DC
:10089000879577956795BA95C9F7009761057105B2
:1008A00008959B01AC010A2E0694579547953795FC
:1008B0002795BA95C9F7620F731F841F951FA01D56
:1008C00008952F923F924F925F926F927F928F92F4
:1008D0009F92AF92BF92CF92DF92EF92FF920F93CF
:1008E0001F93CF93DF93CDB7DEB7CA1BDB0B0FB6D9
:1008F000F894DEBF0FBECDBF09942A883988488896
:100900005F846E847D848C849B84AA84B984C8842B
:10091000DF80EE80FD800C811B81AA81B981CE0F22
:10092000D11D0FB6F894DEBF0FBECDBFED01089507
:04093000F894FFCF69
:0E0934004F43523141203A2025303458000004
:00000001FF
